{
  "contractName": "Campaign",
  "abi": [
    {
      "constant": true,
      "inputs": [],
      "name": "name",
      "outputs": [
        {
          "name": "",
          "type": "string"
        }
      ],
      "payable": false,
      "stateMutability": "view",
      "type": "function"
    },
    {
      "constant": true,
      "inputs": [],
      "name": "deadline",
      "outputs": [
        {
          "name": "",
          "type": "uint256"
        }
      ],
      "payable": false,
      "stateMutability": "view",
      "type": "function"
    },
    {
      "constant": true,
      "inputs": [],
      "name": "beneficiary",
      "outputs": [
        {
          "name": "",
          "type": "address"
        }
      ],
      "payable": false,
      "stateMutability": "view",
      "type": "function"
    },
    {
      "constant": true,
      "inputs": [],
      "name": "goal",
      "outputs": [
        {
          "name": "",
          "type": "uint256"
        }
      ],
      "payable": false,
      "stateMutability": "view",
      "type": "function"
    },
    {
      "constant": true,
      "inputs": [],
      "name": "campaignId",
      "outputs": [
        {
          "name": "",
          "type": "uint256"
        }
      ],
      "payable": false,
      "stateMutability": "view",
      "type": "function"
    },
    {
      "inputs": [
        {
          "name": "_name",
          "type": "string"
        },
        {
          "name": "_beneficiary",
          "type": "address"
        },
        {
          "name": "_goal",
          "type": "uint256"
        },
        {
          "name": "_duration",
          "type": "uint256"
        }
      ],
      "payable": false,
      "stateMutability": "nonpayable",
      "type": "constructor"
    },
    {
      "anonymous": false,
      "inputs": [
        {
          "indexed": false,
          "name": "_amount",
          "type": "uint256"
        },
        {
          "indexed": false,
          "name": "_amountRemaining",
          "type": "uint256"
        },
        {
          "indexed": false,
          "name": "_timestamp",
          "type": "uint256"
        }
      ],
      "name": "Contribution",
      "type": "event"
    },
    {
      "constant": true,
      "inputs": [],
      "name": "currentFunding",
      "outputs": [
        {
          "name": "",
          "type": "uint256"
        }
      ],
      "payable": false,
      "stateMutability": "view",
      "type": "function"
    },
    {
      "constant": true,
      "inputs": [],
      "name": "totalFunders",
      "outputs": [
        {
          "name": "",
          "type": "uint256"
        }
      ],
      "payable": false,
      "stateMutability": "view",
      "type": "function"
    },
    {
      "constant": false,
      "inputs": [
        {
          "name": "_funderAddr",
          "type": "address"
        }
      ],
      "name": "contribute",
      "outputs": [],
      "payable": true,
      "stateMutability": "payable",
      "type": "function"
    },
    {
      "constant": false,
      "inputs": [],
      "name": "payout",
      "outputs": [],
      "payable": false,
      "stateMutability": "nonpayable",
      "type": "function"
    },
    {
      "constant": false,
      "inputs": [
        {
          "name": "_funderAddr",
          "type": "address"
        }
      ],
      "name": "refund",
      "outputs": [],
      "payable": false,
      "stateMutability": "nonpayable",
      "type": "function"
    },
    {
      "constant": false,
      "inputs": [],
      "name": "disable",
      "outputs": [],
      "payable": false,
      "stateMutability": "nonpayable",
      "type": "function"
    },
    {
      "constant": true,
      "inputs": [],
      "name": "getCampaignInfo",
      "outputs": [
        {
          "name": "",
          "type": "uint256"
        },
        {
          "name": "",
          "type": "uint256"
        },
        {
          "name": "",
          "type": "string"
        },
        {
          "name": "",
          "type": "uint256"
        },
        {
          "name": "",
          "type": "uint256"
        }
      ],
      "payable": false,
      "stateMutability": "view",
      "type": "function"
    }
  ],
  "bytecode": "0x608060405234801561001057600080fd5b50604051610ae1380380610ae183398101806040528101908080518201929190602001805190602001909291908051906020019092919080519060200190929190505050836001908051906020019061006a9291906100c5565b5082600260006101000a81548173ffffffffffffffffffffffffffffffffffffffff021916908373ffffffffffffffffffffffffffffffffffffffff160217905550816003819055508042016004819055505050505061016a565b828054600181600116156101000203166002900490600052602060002090601f016020900481019282601f1061010657805160ff1916838001178555610134565b82800160010185558215610134579182015b82811115610133578251825591602001919060010190610118565b5b5090506101419190610145565b5090565b61016791905b8082111561016357600081600090555060010161014b565b5090565b90565b610968806101796000396000f3006080604052600436106100ba576000357c0100000000000000000000000000000000000000000000000000000000900463ffffffff16806306fdde03146100bf5780630888b70d1461014f57806329dcb0cf1461017a5780632f2770db146101a557806338af3eed146101bc578063401938831461021357806363bd1d4a1461023e57806373e888fd146102555780638ed5b0fc1461028b578063a5ec9a78146102b6578063d6290cd7146102e1578063fa89401a1461038d575b600080fd5b3480156100cb57600080fd5b506100d46103d0565b6040518080602001828103825283818151815260200191508051906020019080838360005b838110156101145780820151818401526020810190506100f9565b50505050905090810190601f1680156101415780820380516001836020036101000a031916815260200191505b509250505060405180910390f35b34801561015b57600080fd5b5061016461046e565b6040518082815260200191505060405180910390f35b34801561018657600080fd5b5061018f61048d565b6040518082815260200191505060405180910390f35b3480156101b157600080fd5b506101ba610493565b005b3480156101c857600080fd5b506101d1610502565b604051808273ffffffffffffffffffffffffffffffffffffffff1673ffffffffffffffffffffffffffffffffffffffff16815260200191505060405180910390f35b34801561021f57600080fd5b50610228610528565b6040518082815260200191505060405180910390f35b34801561024a57600080fd5b5061025361052e565b005b610289600480360381019080803573ffffffffffffffffffffffffffffffffffffffff1690602001909291905050506105e5565b005b34801561029757600080fd5b506102a0610746565b6040518082815260200191505060405180910390f35b3480156102c257600080fd5b506102cb61074c565b6040518082815260200191505060405180910390f35b3480156102ed57600080fd5b506102f6610759565b6040518086815260200185815260200180602001848152602001838152602001828103825285818151815260200191508051906020019080838360005b8381101561034e578082015181840152602081019050610333565b50505050905090810190601f16801561037b5780820380516001836020036101000a031916815260200191505b50965050505050505060405180910390f35b34801561039957600080fd5b506103ce600480360381019080803573ffffffffffffffffffffffffffffffffffffffff169060200190929190505050610834565b005b60018054600181600116156101000203166002900480601f0160208091040260200160405190810160405280929190818152602001828054600181600116156101000203166002900480156104665780601f1061043b57610100808354040283529160200191610466565b820191906000526020600020905b81548152906001019060200180831161044957829003601f168201915b505050505081565b60003073ffffffffffffffffffffffffffffffffffffffff1631905090565b60045481565b60003073ffffffffffffffffffffffffffffffffffffffff1631141580156104bc575060045442115b15156104c757600080fd5b600260009054906101000a900473ffffffffffffffffffffffffffffffffffffffff1673ffffffffffffffffffffffffffffffffffffffff16ff5b600260009054906101000a900473ffffffffffffffffffffffffffffffffffffffff1681565b60035481565b6004544211801561055857506003543073ffffffffffffffffffffffffffffffffffffffff163110155b151561056357600080fd5b600260009054906101000a900473ffffffffffffffffffffffffffffffffffffffff1673ffffffffffffffffffffffffffffffffffffffff166108fc3073ffffffffffffffffffffffffffffffffffffffff16319081150290604051600060405180830381858888f193505050501580156105e2573d6000803e3d6000fd5b50565b6000600560008373ffffffffffffffffffffffffffffffffffffffff1673ffffffffffffffffffffffffffffffffffffffff1681526020019081526020016000205414156106945760068190806001815401808255809150509060018203906000526020600020016000909192909190916101000a81548173ffffffffffffffffffffffffffffffffffffffff021916908373ffffffffffffffffffffffffffffffffffffffff160217905550505b34600560008373ffffffffffffffffffffffffffffffffffffffff1673ffffffffffffffffffffffffffffffffffffffff168152602001908152602001600020600082825401925050819055507f10168bdfa79b23b260ebab04f755834bfe8cd71d7dfed6ac01fd1a713eb847ce343073ffffffffffffffffffffffffffffffffffffffff1631600354034260405180848152602001838152602001828152602001935050505060405180910390a150565b60005481565b6000600680549050905090565b600080606060008060035460045460013073ffffffffffffffffffffffffffffffffffffffff1631600680549050828054600181600116156101000203166002900480601f01602080910402602001604051908101604052809291908181526020018280546001816001161561010002031660029004801561081c5780601f106107f15761010080835404028352916020019161081c565b820191906000526020600020905b8154815290600101906020018083116107ff57829003601f168201915b50505050509250945094509450945094509091929394565b60006004544211801561085f57506003543073ffffffffffffffffffffffffffffffffffffffff1631105b151561086a57600080fd5b600560008373ffffffffffffffffffffffffffffffffffffffff1673ffffffffffffffffffffffffffffffffffffffff1681526020019081526020016000205490506000600560008473ffffffffffffffffffffffffffffffffffffffff1673ffffffffffffffffffffffffffffffffffffffff168152602001908152602001600020819055508173ffffffffffffffffffffffffffffffffffffffff166108fc829081150290604051600060405180830381858888f19350505050158015610937573d6000803e3d6000fd5b5050505600a165627a7a72305820930f75b18d634273e193d28aaf9a56c17387bf3ceb26f797c8ea0c67265b4c3a0029",
  "source": "pragma solidity ^0.4.24;\n\ncontract Campaign {\n\n    uint public campaignId;\n    string public name;\n\n    address public beneficiary;\n    uint public goal;\n    uint public deadline;\n\n    mapping (address => uint) private funders;\n\n    address[] totalFundersArr;\n\n    event Contribution(uint _amount, uint _amountRemaining, uint _timestamp);\n\n    constructor(string _name, address _beneficiary, uint _goal, uint _duration) public {\n        name = _name;\n        beneficiary = _beneficiary;\n        goal = _goal;\n        deadline  = now + _duration;\n    }\n\n    function currentFunding() public view returns (uint){\n        return address(this).balance;\n    }\n\n    function totalFunders() public view returns (uint){\n        return totalFundersArr.length;\n    }\n\n    function contribute(address _funderAddr) public payable {\n        if(funders[_funderAddr] == 0) totalFundersArr.push(_funderAddr);\n        funders[_funderAddr] += msg.value;\n        emit Contribution(msg.value, goal - address(this).balance, now);\n    }\n\n    function payout() public {\n        require(now > deadline && address(this).balance >= goal);\n        beneficiary.transfer(address(this).balance);\n    }\n\n    function refund(address _funderAddr) public {\n        require(now > deadline && address(this).balance < goal);\n        uint amountToSend = funders[_funderAddr];\n        funders[_funderAddr] = 0;\n        _funderAddr.transfer(amountToSend);\n    }\n\n    function disable() public {\n        require(address(this).balance != 0 && now > deadline);\n        selfdestruct(beneficiary);\n    }\n\n    function getCampaignInfo() public view returns (uint, uint, string, uint, uint){\n        return (goal, deadline, name, address(this).balance, totalFundersArr.length);\n    }\n}",
  "sourcePath": "C:\\Users\\eabar\\Documents\\Blockchain Course\\crowdfund-starter\\solidity\\contracts\\Campaign.sol",
  "compiler": {
    "name": "solc",
    "version": "0.4.24+commit.e67f0147.Emscripten.clang"
  },
  "schemaVersion": "2.0.1",
  "updatedAt": "2018-09-04T16:47:42.714Z"
}