{
  "contractName": "Campaign",
  "abi": [
    {
      "constant": true,
      "inputs": [],
      "name": "name",
      "outputs": [
        {
          "name": "",
          "type": "string"
        }
      ],
      "payable": false,
      "stateMutability": "view",
      "type": "function"
    },
    {
      "constant": true,
      "inputs": [],
      "name": "deadline",
      "outputs": [
        {
          "name": "",
          "type": "uint256"
        }
      ],
      "payable": false,
      "stateMutability": "view",
      "type": "function"
    },
    {
      "constant": true,
      "inputs": [],
      "name": "beneficiary",
      "outputs": [
        {
          "name": "",
          "type": "address"
        }
      ],
      "payable": false,
      "stateMutability": "view",
      "type": "function"
    },
    {
      "constant": true,
      "inputs": [],
      "name": "goal",
      "outputs": [
        {
          "name": "",
          "type": "uint256"
        }
      ],
      "payable": false,
      "stateMutability": "view",
      "type": "function"
    },
    {
      "constant": true,
      "inputs": [],
      "name": "campaignId",
      "outputs": [
        {
          "name": "",
          "type": "uint256"
        }
      ],
      "payable": false,
      "stateMutability": "view",
      "type": "function"
    },
    {
      "inputs": [
        {
          "name": "_name",
          "type": "string"
        },
        {
          "name": "_beneficiary",
          "type": "address"
        },
        {
          "name": "_goal",
          "type": "uint256"
        },
        {
          "name": "_duration",
          "type": "uint256"
        }
      ],
      "payable": false,
      "stateMutability": "nonpayable",
      "type": "constructor"
    },
    {
      "anonymous": false,
      "inputs": [
        {
          "indexed": false,
          "name": "_amount",
          "type": "uint256"
        },
        {
          "indexed": false,
          "name": "_amountRemaining",
          "type": "uint256"
        },
        {
          "indexed": false,
          "name": "_timestamp",
          "type": "uint256"
        }
      ],
      "name": "Contribution",
      "type": "event"
    },
    {
      "constant": true,
      "inputs": [],
      "name": "currentFunding",
      "outputs": [
        {
          "name": "",
          "type": "uint256"
        }
      ],
      "payable": false,
      "stateMutability": "view",
      "type": "function"
    },
    {
      "constant": true,
      "inputs": [],
      "name": "totalFunders",
      "outputs": [
        {
          "name": "",
          "type": "uint256"
        }
      ],
      "payable": false,
      "stateMutability": "view",
      "type": "function"
    },
    {
      "constant": false,
      "inputs": [
        {
          "name": "_funderAddr",
          "type": "address"
        }
      ],
      "name": "contribute",
      "outputs": [],
      "payable": true,
      "stateMutability": "payable",
      "type": "function"
    },
    {
      "constant": false,
      "inputs": [],
      "name": "payout",
      "outputs": [],
      "payable": false,
      "stateMutability": "nonpayable",
      "type": "function"
    },
    {
      "constant": false,
      "inputs": [
        {
          "name": "_funderAddr",
          "type": "address"
        }
      ],
      "name": "refund",
      "outputs": [],
      "payable": false,
      "stateMutability": "nonpayable",
      "type": "function"
    },
    {
      "constant": false,
      "inputs": [],
      "name": "disable",
      "outputs": [],
      "payable": false,
      "stateMutability": "nonpayable",
      "type": "function"
    }
  ],
  "bytecode": "0x608060405234801561001057600080fd5b5060405161094f38038061094f83398101806040528101908080518201929190602001805190602001909291908051906020019092919080519060200190929190505050836001908051906020019061006a9291906100c5565b5082600260006101000a81548173ffffffffffffffffffffffffffffffffffffffff021916908373ffffffffffffffffffffffffffffffffffffffff160217905550816003819055508042016004819055505050505061016a565b828054600181600116156101000203166002900490600052602060002090601f016020900481019282601f1061010657805160ff1916838001178555610134565b82800160010185558215610134579182015b82811115610133578251825591602001919060010190610118565b5b5090506101419190610145565b5090565b61016791905b8082111561016357600081600090555060010161014b565b5090565b90565b6107d6806101796000396000f3006080604052600436106100af576000357c0100000000000000000000000000000000000000000000000000000000900463ffffffff16806306fdde03146100b45780630888b70d1461014457806329dcb0cf1461016f5780632f2770db1461019a57806338af3eed146101b1578063401938831461020857806363bd1d4a1461023357806373e888fd1461024a5780638ed5b0fc14610280578063a5ec9a78146102ab578063fa89401a146102d6575b600080fd5b3480156100c057600080fd5b506100c9610319565b6040518080602001828103825283818151815260200191508051906020019080838360005b838110156101095780820151818401526020810190506100ee565b50505050905090810190601f1680156101365780820380516001836020036101000a031916815260200191505b509250505060405180910390f35b34801561015057600080fd5b506101596103b7565b6040518082815260200191505060405180910390f35b34801561017b57600080fd5b506101846103d6565b6040518082815260200191505060405180910390f35b3480156101a657600080fd5b506101af6103dc565b005b3480156101bd57600080fd5b506101c661044b565b604051808273ffffffffffffffffffffffffffffffffffffffff1673ffffffffffffffffffffffffffffffffffffffff16815260200191505060405180910390f35b34801561021457600080fd5b5061021d610471565b6040518082815260200191505060405180910390f35b34801561023f57600080fd5b50610248610477565b005b61027e600480360381019080803573ffffffffffffffffffffffffffffffffffffffff16906020019092919050505061052e565b005b34801561028c57600080fd5b5061029561068f565b6040518082815260200191505060405180910390f35b3480156102b757600080fd5b506102c0610695565b6040518082815260200191505060405180910390f35b3480156102e257600080fd5b50610317600480360381019080803573ffffffffffffffffffffffffffffffffffffffff1690602001909291905050506106a2565b005b60018054600181600116156101000203166002900480601f0160208091040260200160405190810160405280929190818152602001828054600181600116156101000203166002900480156103af5780601f10610384576101008083540402835291602001916103af565b820191906000526020600020905b81548152906001019060200180831161039257829003601f168201915b505050505081565b60003073ffffffffffffffffffffffffffffffffffffffff1631905090565b60045481565b60003073ffffffffffffffffffffffffffffffffffffffff163114158015610405575060045442115b151561041057600080fd5b600260009054906101000a900473ffffffffffffffffffffffffffffffffffffffff1673ffffffffffffffffffffffffffffffffffffffff16ff5b600260009054906101000a900473ffffffffffffffffffffffffffffffffffffffff1681565b60035481565b600454421180156104a157506003543073ffffffffffffffffffffffffffffffffffffffff163110155b15156104ac57600080fd5b600260009054906101000a900473ffffffffffffffffffffffffffffffffffffffff1673ffffffffffffffffffffffffffffffffffffffff166108fc3073ffffffffffffffffffffffffffffffffffffffff16319081150290604051600060405180830381858888f1935050505015801561052b573d6000803e3d6000fd5b50565b6000600560008373ffffffffffffffffffffffffffffffffffffffff1673ffffffffffffffffffffffffffffffffffffffff1681526020019081526020016000205414156105dd5760068190806001815401808255809150509060018203906000526020600020016000909192909190916101000a81548173ffffffffffffffffffffffffffffffffffffffff021916908373ffffffffffffffffffffffffffffffffffffffff160217905550505b34600560008373ffffffffffffffffffffffffffffffffffffffff1673ffffffffffffffffffffffffffffffffffffffff168152602001908152602001600020600082825401925050819055507f10168bdfa79b23b260ebab04f755834bfe8cd71d7dfed6ac01fd1a713eb847ce343073ffffffffffffffffffffffffffffffffffffffff1631600354034260405180848152602001838152602001828152602001935050505060405180910390a150565b60005481565b6000600680549050905090565b6000600454421180156106cd57506003543073ffffffffffffffffffffffffffffffffffffffff1631105b15156106d857600080fd5b600560008373ffffffffffffffffffffffffffffffffffffffff1673ffffffffffffffffffffffffffffffffffffffff1681526020019081526020016000205490506000600560008473ffffffffffffffffffffffffffffffffffffffff1673ffffffffffffffffffffffffffffffffffffffff168152602001908152602001600020819055508173ffffffffffffffffffffffffffffffffffffffff166108fc829081150290604051600060405180830381858888f193505050501580156107a5573d6000803e3d6000fd5b5050505600a165627a7a723058205d03c9b5d9c1619cb8974c7bc8b30ff2f8f7abe917a2921278a58c87882bcebb0029",
  "source": "pragma solidity ^0.4.24;\r\n\r\ncontract Campaign {\r\n\r\n    uint public campaignId;\r\n    string public name;\r\n\r\n    address public beneficiary;\r\n    uint public goal;\r\n    uint public deadline;\r\n\r\n    mapping (address => uint) private funders;\r\n\r\n    address[] totalFundersArr;\r\n\r\n    event Contribution(uint _amount, uint _amountRemaining, uint _timestamp);\r\n\r\n    constructor(string _name, address _beneficiary, uint _goal, uint _duration) public {\r\n        name = _name;\r\n        beneficiary = _beneficiary;\r\n        goal = _goal;\r\n        deadline  = now + _duration;\r\n    }\r\n\r\n    function currentFunding() public view returns (uint){\r\n        return address(this).balance;\r\n    }\r\n\r\n    function totalFunders() public view returns (uint){\r\n        return totalFundersArr.length;\r\n    }\r\n\r\n    function contribute(address _funderAddr) public payable {\r\n        if(funders[_funderAddr] == 0) totalFundersArr.push(_funderAddr);\r\n        funders[_funderAddr] += msg.value;\r\n        emit Contribution(msg.value, goal - address(this).balance, now);\r\n    }\r\n\r\n    function payout() public {\r\n        require(now > deadline && address(this).balance >= goal);\r\n        beneficiary.transfer(address(this).balance);\r\n    }\r\n\r\n    function refund(address _funderAddr) public {\r\n        require(now > deadline && address(this).balance < goal);\r\n        uint amountToSend = funders[_funderAddr];\r\n        funders[_funderAddr] = 0;\r\n        _funderAddr.transfer(amountToSend);\r\n    }\r\n\r\n    function disable() public {\r\n        require(address(this).balance != 0 && now > deadline);\r\n        selfdestruct(beneficiary);\r\n    }\r\n}\r\n\r\n\r\n",
  "sourcePath": "C:\\Users\\Javier\\Documents\\truffle\\crowdfund-starter\\solidity\\contracts\\Campaign.sol",
  "compiler": {
    "name": "solc",
    "version": "0.4.24+commit.e67f0147.Emscripten.clang"
  },
  "schemaVersion": "2.0.1",
  "updatedAt": "2018-09-03T17:38:23.347Z"
}