{
  "contractName": "Dashboard",
  "abi": [
    {
      "constant": true,
      "inputs": [],
      "name": "database",
      "outputs": [
        {
          "name": "",
          "type": "address"
        }
      ],
      "payable": false,
      "stateMutability": "view",
      "type": "function"
    },
    {
      "constant": true,
      "inputs": [],
      "name": "campaignCount",
      "outputs": [
        {
          "name": "",
          "type": "uint256"
        }
      ],
      "payable": false,
      "stateMutability": "view",
      "type": "function"
    },
    {
      "inputs": [
        {
          "name": "_factorAddr",
          "type": "address"
        }
      ],
      "payable": false,
      "stateMutability": "nonpayable",
      "type": "constructor"
    },
    {
      "constant": true,
      "inputs": [
        {
          "name": "_id",
          "type": "uint256"
        }
      ],
      "name": "getCampaignAddress",
      "outputs": [
        {
          "name": "",
          "type": "address"
        }
      ],
      "payable": false,
      "stateMutability": "view",
      "type": "function"
    },
    {
      "constant": false,
      "inputs": [
        {
          "name": "_name",
          "type": "string"
        },
        {
          "name": "_beneficiary",
          "type": "address"
        },
        {
          "name": "_goal",
          "type": "uint256"
        },
        {
          "name": "_duration",
          "type": "uint256"
        }
      ],
      "name": "newCampaign",
      "outputs": [],
      "payable": false,
      "stateMutability": "nonpayable",
      "type": "function"
    },
    {
      "constant": true,
      "inputs": [
        {
          "name": "_id",
          "type": "uint256"
        }
      ],
      "name": "viewTotalFunders",
      "outputs": [
        {
          "name": "",
          "type": "uint256"
        }
      ],
      "payable": false,
      "stateMutability": "view",
      "type": "function"
    },
    {
      "constant": true,
      "inputs": [
        {
          "name": "_id",
          "type": "uint256"
        }
      ],
      "name": "viewCurrentFunding",
      "outputs": [
        {
          "name": "",
          "type": "uint256"
        }
      ],
      "payable": false,
      "stateMutability": "view",
      "type": "function"
    },
    {
      "constant": false,
      "inputs": [
        {
          "name": "_id",
          "type": "uint256"
        }
      ],
      "name": "makeContribution",
      "outputs": [],
      "payable": true,
      "stateMutability": "payable",
      "type": "function"
    },
    {
      "constant": false,
      "inputs": [
        {
          "name": "_id",
          "type": "uint256"
        }
      ],
      "name": "getRefund",
      "outputs": [],
      "payable": false,
      "stateMutability": "nonpayable",
      "type": "function"
    },
    {
      "constant": false,
      "inputs": [
        {
          "name": "_id",
          "type": "uint256"
        }
      ],
      "name": "pushPayout",
      "outputs": [],
      "payable": false,
      "stateMutability": "nonpayable",
      "type": "function"
    },
    {
      "constant": false,
      "inputs": [
        {
          "name": "_id",
          "type": "uint256"
        }
      ],
      "name": "disableInstance",
      "outputs": [],
      "payable": false,
      "stateMutability": "nonpayable",
      "type": "function"
    }
  ],
  "bytecode": "0x608060405234801561001057600080fd5b50604051602080610c5983398101806040528101908080519060200190929190505050806000806101000a81548173ffffffffffffffffffffffffffffffffffffffff021916908373ffffffffffffffffffffffffffffffffffffffff16021790555050610bd6806100836000396000f3006080604052600436106100a4576000357c0100000000000000000000000000000000000000000000000000000000900463ffffffff1680630217da3d146100a957806310979365146100ea5780631e29c62d1461011757806336067142146101b4578063360a2bcb146101e1578063713b563f146102015780637274e30d14610258578063d2f0be9914610283578063e1231ec5146102b0578063e5cdffe71461031d575b600080fd5b3480156100b557600080fd5b506100d46004803603810190808035906020019092919050505061035e565b6040518082815260200191505060405180910390f35b3480156100f657600080fd5b5061011560048036038101908080359060200190929190505050610459565b005b34801561012357600080fd5b506101b2600480360381019080803590602001908201803590602001908080601f0160208091040260200160405190810160405280939291908181526020018383808284378201915050505050509192919290803573ffffffffffffffffffffffffffffffffffffffff169060200190929190803590602001909291908035906020019092919050505061052c565b005b3480156101c057600080fd5b506101df600480360381019080803590602001909291905050506106b9565b005b6101ff6004803603810190808035906020019092919050505061078c565b005b34801561020d57600080fd5b506102166108a6565b604051808273ffffffffffffffffffffffffffffffffffffffff1673ffffffffffffffffffffffffffffffffffffffff16815260200191505060405180910390f35b34801561026457600080fd5b5061026d6108cb565b6040518082815260200191505060405180910390f35b34801561028f57600080fd5b506102ae600480360381019080803590602001909291905050506108d1565b005b3480156102bc57600080fd5b506102db600480360381019080803590602001909291905050506109db565b604051808273ffffffffffffffffffffffffffffffffffffffff1673ffffffffffffffffffffffffffffffffffffffff16815260200191505060405180910390f35b34801561032957600080fd5b5061034860048036038101908080359060200190929190505050610aaf565b6040518082815260200191505060405180910390f35b60008082600073ffffffffffffffffffffffffffffffffffffffff16610383826109db565b73ffffffffffffffffffffffffffffffffffffffff16141515156103a657600080fd5b6103af846109db565b91508173ffffffffffffffffffffffffffffffffffffffff16630888b70d6040518163ffffffff167c0100000000000000000000000000000000000000000000000000000000028152600401602060405180830381600087803b15801561041557600080fd5b505af1158015610429573d6000803e3d6000fd5b505050506040513d602081101561043f57600080fd5b810190808051906020019092919050505092505050919050565b600081600073ffffffffffffffffffffffffffffffffffffffff1661047d826109db565b73ffffffffffffffffffffffffffffffffffffffff16141515156104a057600080fd5b6104a9836109db565b91508173ffffffffffffffffffffffffffffffffffffffff166363bd1d4a6040518163ffffffff167c0100000000000000000000000000000000000000000000000000000000028152600401600060405180830381600087803b15801561050f57600080fd5b505af1158015610523573d6000803e3d6000fd5b50505050505050565b6000809054906101000a900473ffffffffffffffffffffffffffffffffffffffff1673ffffffffffffffffffffffffffffffffffffffff16631e29c62d858585856040518563ffffffff167c010000000000000000000000000000000000000000000000000000000002815260040180806020018573ffffffffffffffffffffffffffffffffffffffff1673ffffffffffffffffffffffffffffffffffffffff168152602001848152602001838152602001828103825286818151815260200191508051906020019080838360005b838110156106165780820151818401526020810190506105fb565b50505050905090810190601f1680156106435780820380516001836020036101000a031916815260200191505b5095505050505050602060405180830381600087803b15801561066557600080fd5b505af1158015610679573d6000803e3d6000fd5b505050506040513d602081101561068f57600080fd5b81019080805190602001909291905050505060016000815480929190600101919050555050505050565b600081600073ffffffffffffffffffffffffffffffffffffffff166106dd826109db565b73ffffffffffffffffffffffffffffffffffffffff161415151561070057600080fd5b610709836109db565b91508173ffffffffffffffffffffffffffffffffffffffff16632f2770db6040518163ffffffff167c0100000000000000000000000000000000000000000000000000000000028152600401600060405180830381600087803b15801561076f57600080fd5b505af1158015610783573d6000803e3d6000fd5b50505050505050565b600081600073ffffffffffffffffffffffffffffffffffffffff166107b0826109db565b73ffffffffffffffffffffffffffffffffffffffff16141515156107d357600080fd5b6000341115156107e257600080fd5b6107eb836109db565b91508173ffffffffffffffffffffffffffffffffffffffff166373e888fd34336040518363ffffffff167c0100000000000000000000000000000000000000000000000000000000028152600401808273ffffffffffffffffffffffffffffffffffffffff1673ffffffffffffffffffffffffffffffffffffffff1681526020019150506000604051808303818588803b15801561088857600080fd5b505af115801561089c573d6000803e3d6000fd5b5050505050505050565b6000809054906101000a900473ffffffffffffffffffffffffffffffffffffffff1681565b60015481565b600081600073ffffffffffffffffffffffffffffffffffffffff166108f5826109db565b73ffffffffffffffffffffffffffffffffffffffff161415151561091857600080fd5b610921836109db565b91508173ffffffffffffffffffffffffffffffffffffffff1663fa89401a336040518263ffffffff167c0100000000000000000000000000000000000000000000000000000000028152600401808273ffffffffffffffffffffffffffffffffffffffff1673ffffffffffffffffffffffffffffffffffffffff168152602001915050600060405180830381600087803b1580156109be57600080fd5b505af11580156109d2573d6000803e3d6000fd5b50505050505050565b60008060009054906101000a900473ffffffffffffffffffffffffffffffffffffffff1673ffffffffffffffffffffffffffffffffffffffff1663e38e2b82836040518263ffffffff167c010000000000000000000000000000000000000000000000000000000002815260040180828152602001915050602060405180830381600087803b158015610a6d57600080fd5b505af1158015610a81573d6000803e3d6000fd5b505050506040513d6020811015610a9757600080fd5b81019080805190602001909291905050509050919050565b60008082600073ffffffffffffffffffffffffffffffffffffffff16610ad4826109db565b73ffffffffffffffffffffffffffffffffffffffff1614151515610af757600080fd5b610b00846109db565b91508173ffffffffffffffffffffffffffffffffffffffff1663a5ec9a786040518163ffffffff167c0100000000000000000000000000000000000000000000000000000000028152600401602060405180830381600087803b158015610b6657600080fd5b505af1158015610b7a573d6000803e3d6000fd5b505050506040513d6020811015610b9057600080fd5b8101908080519060200190929190505050925050509190505600a165627a7a72305820f3a7c6c22d420e90b49c4b4b3aee2716c516c8ede17cf1fa5d885e6291b1223e0029",
  "source": "pragma solidity ^0.4.24;\r\n\r\nimport './Factory.sol';\r\n\r\ncontract Dashboard {\r\n\r\n    Factory public database;\r\n    uint public campaignCount;\r\n\r\n    constructor(address _factorAddr) public {\r\n        database = Factory(_factorAddr);\r\n    }\r\n\r\n    modifier validateAddress(uint _id) {\r\n        require(getCampaignAddress(_id) != address(0));\r\n        _;\r\n    }\r\n\r\n    function getCampaignAddress(uint _id) public view returns (address) {\r\n        return database.getCampaignInfo(_id);\r\n    }\r\n\r\n    function newCampaign(string _name, address _beneficiary, uint _goal, uint _duration) public {\r\n        database.newCampaign(_name, _beneficiary, _goal, _duration);\r\n        campaignCount++;\r\n    }\r\n\r\n    function viewTotalFunders(uint _id) validateAddress(_id) public view returns (uint) {\r\n        Campaign c = Campaign(getCampaignAddress(_id));\r\n        return c.totalFunders();\r\n    }\r\n\r\n    function viewCurrentFunding(uint _id) validateAddress(_id) public view returns (uint) {\r\n        Campaign c = Campaign(getCampaignAddress(_id));\r\n        return c.currentFunding();\r\n    }\r\n\r\n    function makeContribution(uint _id) validateAddress(_id) public payable {\r\n        require(msg.value > 0);\r\n        Campaign c = Campaign(getCampaignAddress(_id));\r\n        c.contribute.value(msg.value)(msg.sender);\r\n    }\r\n\r\n    function getRefund(uint _id) validateAddress(_id) public {\r\n        Campaign c = Campaign(getCampaignAddress(_id));\r\n        c.refund(msg.sender);\r\n    }\r\n\r\n    function pushPayout(uint _id) validateAddress(_id) public {\r\n        Campaign c = Campaign(getCampaignAddress(_id));\r\n        c.payout();\r\n    }\r\n\r\n    function disableInstance(uint _id) validateAddress(_id) public {\r\n        Campaign c = Campaign(getCampaignAddress(_id));\r\n        c.disable();\r\n    }\r\n}\r\n",
  "sourcePath": "C:\\Users\\Javier\\Documents\\truffle\\crowdfund-starter\\solidity\\contracts\\Dashboard.sol",
  "compiler": {
    "name": "solc",
    "version": "0.4.24+commit.e67f0147.Emscripten.clang"
  },
  "schemaVersion": "2.0.1",
  "updatedAt": "2018-09-04T17:07:53.124Z"
}